:0200000270008C
:10A00000807F0020DDDC070005DD070007DD07009D
:10A0100009DD07000BDD07000DDD07000000000073
:10A02000000000000000000000000000A5C80700BC
:10A0300011DD07000000000013DD070015DD07003B
:10A0400017DD070017DD070017DD070017DD070024
:10A0500017DD070017DD070017DD070017DD070014
:10A0600017DD070017DD070017DD070017DD070004
:10A0700017DD070017DD070017DD070017DD0700F4
:10A0800017DD0700B1A8070017DD070017DD07007F
:10A0900069A9070017DD070049DC070017DD070085
:10A0A00017DD070017DD070017DD070017DD0700C4
:10A0B00017DD070017DD07000000000000000000AA
:10A0C00017DD070017DD070017DD070017DD0700A4
:10A0D00017DD070017DD070017DD0700000000008F
:10A0E0000000000000000000000000000000000070
:10A0F0000000000000000000000000000000000060
:10A10000000000000000000000000000000000004F
:10A11000000000000000000000000000000000003F
:10A4000010B5054C237833B9044B13B10448AFF3AE
:10A4100000800123237010BD782C00200000000074
:10A42000A4DD0700084B10B51BB108480849AFF37D
:10A4300000800848036803B910BD074B002BFBD010
:10A44000BDE81040184700BF00000000A4DD070071
:10A450007C2C0020742C002000000000154B002BE9
:10A4600008BF134B9D46A3F5803A00218B460F464B
:10A470001348144A121A00F065F80F4B002B00D055
:10A4800098470E4B002B00D0984700200021040075
:10A490000D000D48002802D00C48AFF3008000F0FA
:10A4A0002BF82000290002F08BFA00F011F800BF11
:10A4B00000000800807F0020000000000000000075
:10A4C000782C0020B43400200000000000000000C0
:10A4D00008B5074B044613B10021AFF30080054BCC
:10A4E0001868836A03B19847204600F033F800BF2C
:10A4F000000000007CDD070070B50E4B0E4CE41A26
:10A50000A41000251E46A54204D056F825309847D1
:10A510000135F8E703F024FC084C094BE41AA410B9
:10A5200000251E46A54204D056F82530984701352F
:10A53000F8E770BD6C2C00206C2C0020702C0020E3
:10A540006C2C002002440346934202D003F8011B06
:10A55000FAE77047FEE700BF1FB50021039001AA8C
:10A5600044F20100ADF80410029100F003F805B0C8
:10A570005DF804FBBFF34F8F0549064BCA6802F430
:10A58000E0621343CB60BFF34F8F00BFFDE700BF16
:10A5900000ED00E00400FA0510B512F0030411D13B
:10A5A000094B1A604B1CDB009BB21A44074B1A6024
:10A5B000074B1C70074B1C70074B1880074B19800A
:10A5C000204610BD072010BD942C0020982C0020A0
:10A5D0009F2C00209E2C00209C2C0020A02C0020D2
:10A5E0002DE9F3472B4D2B888B4206460C46174628
:10A5F0004AD302A84FF0000800F8018D00F0AEFC2D
:10A60000254B264A18781178CBB2254909888B4208
:10A6100038BF0133C0B238BF5FFA83F880450AD033
:10A6200092F800801378DBB28B423ABF0133DBB281
:10A630000023137001E04FF6FF789DF8070000F04B
:10A64000B3FC4FF6FF73984520D0DFF85CA0DAF832
:10A6500000304FEAC80903EB090243F8387086B1AD
:10A660007CB1104B28881B68314600FB083022461D
:10A6700003F062FBDAF8003099440020A9F80440A6
:10A6800005E00020908002E0092000E0042002B0F4
:10A69000BDE8F0879C2C00209E2C00209F2C0020E1
:10A6A000A02C0020982C0020942C002038B51149B3
:10A6B000114A0B7812789A421BD010480A780B780E
:10A6C0000088DBB2984286BF0133DBB200230B70F7
:10A6D0000B4B1D880B4B18680B4BD2B21B6811B289
:10A6E00003EBC10405FB020053F83130A188984701
:10A6F000DDE738BD9E2C00209F2C0020A02C0020E0
:10A700009C2C0020982C0020942C002043788278E8
:10A710000133DBB29A4208BF002302789A421FBF7E
:10A720000B70437803EB4302436814BF03EBC20092
:10A7300000207047EFF30583C3F30803BBB1103B60
:10A740005AB2002AABBF02F1604303F00F0303F5D6
:10A750006143094AACBF93F80033D35C5B09DBB2B9
:10A76000022B06D0062B0CBF0120022070470220CE
:10A7700070470020704700BF14ED00E0494B4FF4D4
:10A780000032C3F8802003F1C04303F53C534FF47B
:10A790008032C3F848230121C3F808232F225960CF
:10A7A0001046013800BF00BF00BF00BF00BF00BFA0
:10A7B00000BF00BF00BF00BF00BF00BF00BF00BFA1
:10A7C00000BF00BF00BF00BF00BF00BF00BF00BF91
:10A7D00000BF00BF00BF00BF00BF00BF00BF00BF81
:10A7E00000BF00BF00BF00BF00BF00BF00BF00BF71
:10A7F00000BF00BF00BF00BF00BF00BF00BF00BF61
:10A8000000BF00BF00BF00BF00BF00BF00BF00BF50
:10A8100000BF00BF00BF00BFC3D199602249002321
:10A820000B601046013800BF00BF00BF00BF00BF73
:10A8300000BF00BF00BF00BF00BF00BF00BF00BF20
:10A8400000BF00BF00BF00BF00BF00BF00BF00BF10
:10A8500000BF00BF00BF00BF00BF00BF00BF00BF00
:10A8600000BF00BF00BF00BF00BF00BF00BF00BFF0
:10A8700000BF00BF00BF00BF00BF00BF00BF00BFE0
:10A8800000BF00BF00BF00BF00BF00BF00BF00BFD0
:10A8900000BF00BF00BF00BF00BFC3D1034A137099
:10A8A000704700BF00E100E0A42C0020C42C002071
:10A8B00070B52549254B0022C1F84021C1F844213B
:10A8C000C1F84821C1F84C21C1F80021C1F8042188
:10A8D0001B68002B36D01E48D1F8041504680C1BE9
:10A8E00024F07F4415461A68944216D3A41A1544DE
:10A8F0001A7CDE6972B100221A74164A126832B1EB
:10A9000058699969904728B1FFF726FE02E05A6915
:10A91000986990470EB13346E5E70F4B0F4A197817
:10A9200013788B4205D10133DBB2022B08BF002321
:10A93000137012780A4B43F822500A4B4FF48012DE
:10A94000C3F8002170BD00BF00100140A82C0020FA
:10A95000A42C0020AC2C0020B82C0020B92C002006
:10A96000BC2C002000E100E02DE9F04F884D894A21
:10A9700089492B68097885B002931378994210D0E1
:10A980000133DBB2022B08BF002313701278834B14
:10A9900053F82210029BCB1823F07F432B60012039
:10A9A00001E0002108467E4BD5F800C0D3F80090A6
:10A9B0007C4B1B7801937C4B019DD3F800A07B4B13
:10A9C0001E784B46013DEDB2FF2D30D02AB20AEB86
:10A9D000C20E1AF832209EF801709742F2D002EBB4
:10A9E0004207DEF804409EF802B004EBC7080132CB
:10A9F00014F83770D2B2934508BF0022022F02D05C
:10AA0000032FE8D10DE0D8F804709B469846B8F1C2
:10AA1000000FE0D0B84500F09481C346D8F81C8000
:10AA2000F5E7002BD7D000271F74DB69F9E75F4AF1
:10AA3000574D16705A4EC5F800C03360AE4620B967
:10AA4000B3EB090318BF01231EE000208446CBB1FD
:10AA50001D68A94203D2691A3360196013E0DF68E8
:10AA6000D3F81C80491BAC4400251D6047B1029CF3
:10AA7000D8610CEB040525F07F455D609F601846AA
:10AA80004346E4E7336001234749D6F80090127843
:10AA90000968DEF800A0039202914A4601994C1E13
:10AAA000E1B2FF29019100F085800299019C01EB40
:10AAB000C407114610B10246C06923E03A787D7898
:10AAC000954262D002EB420C97F802807E68013218
:10AAD000D2B290453A7008BF387006EBCC0516F834
:10AAE0003C606A68012E4ED1167C002E4BD1AC68BA
:10AAF0005460EC6894602C69D460039C6D69956126
:10AB000004B156605668DFF8A8C0CAEB060525F008
:10AB10007F456545D2F808C001D8654408E0C6EB1A
:10AB20000A0525F07F45AC458CBFC5EB0C0500251B
:10AB3000156001260025556095601674D5610029C1
:10AB4000B7D016680D68AE4203D8AE1B0E60D16157
:10AB5000AFE78B460D46D5F80080464509D9D5F8B4
:10AB60001CC0C8EB0606AB46BCF1000F07D065461B
:10AB7000F1E7AC46C6EB0805CCF800505D46166020
:10AB8000C2F81CC0EA610A4693E70A4686E700BF9E
:10AB9000A42C0020B82C0020B92C0020BC2C0020B4
:10ABA000A82C0020B02C0020B42C0020BA2C0020AF
:10ABB000FEFF7F006E494A450A6002D1002B00F07B
:10ABC000BA80002A00F0B5806A49DEF80030D1F87A
:10ABD0000445694D17682878E21A22F07F42033253
:10ABE00000284BD14FF48030C1F84403C1F804036E
:10ABF00062484FF40036C0F88061066001260E609E
:10AC00002F20013800BF00BF00BF00BF00BF00BF42
:10AC100000BF00BF00BF00BF00BF00BF00BF00BF3C
:10AC200000BF00BF00BF00BF00BF00BF00BF00BF2C
:10AC300000BF00BF00BF00BF00BF00BF00BF00BF1C
:10AC400000BF00BF00BF00BF00BF00BF00BF00BF0C
:10AC500000BF00BF00BF00BF00BF00BF00BF00BFFC
:10AC600000BF00BF00BF00BF00BF00BF00BF00BFEC
:10AC700000BF00BF00BF00BFC3D12E70BA422CBFBF
:10AC80009A18DA1922F07F43C1F84035D1F804252B
:10AC90003848121B22F07F421B1B033223F07F43F4
:10ACA0009A4248D9D0F80435C0F840352F200138F1
:10ACB00000BF00BF00BF00BF00BF00BF00BF00BF9C
:10ACC00000BF00BF00BF00BF00BF00BF00BF00BF8C
:10ACD00000BF00BF00BF00BF00BF00BF00BF00BF7C
:10ACE00000BF00BF00BF00BF00BF00BF00BF00BF6C
:10ACF00000BF00BF00BF00BF00BF00BF00BF00BF5C
:10AD000000BF00BF00BF00BF00BF00BF00BF00BF4B
:10AD100000BF00BF00BF00BF00BF00BF00BF00BF3B
:10AD200000BF00BFC3D1154B4FF40032C3F8002160
:10AD300001E0FFF723FD124B00221A7005B0BDE8B9
:10AD4000F08FBB4507D1DB692BB9DFF828C001269E
:10AD5000CCF808609C46D7F80080FF69CBF81C70DF
:10AD6000002F3FF438AE3C68A044C7F8008032E6BC
:10AD7000A82C002000100140C42C002000E100E0BD
:10AD8000BA2C00202DE9F0411E46930780460F465D
:10AD9000144639D11E4D0AB92A6035E0FFF7EEFCA2
:10ADA0001C4A1D4B16602C60032204F1180507EBAA
:10ADB00047061A70964029462246002355601370B4
:10ADC0005370977008328A423544F6D1134A1360A3
:10ADD000134A1370134A1370134A4FF48011C020A2
:10ADE000C2F8801182F81403116001F18041A1F5CD
:10ADF0006F21C1F8088582F811030C4AD1F80415B7
:10AE000011601846BDE8F0810720BDE8F08100BF61
:10AE1000B42C0020AC2C0020B02C0020A82C00204A
:10AE2000B82C0020B92C002000E100E0A42C002068
:10AE3000074B1B684BB132B128B10368187C20B9AD
:10AE400059745A617047072070470820704700BF47
:10AE5000B42C00202DE9F3411B4B1C6805460E461F
:10AE600017466CB360B3042928D9436943B3437CC4
:10AE7000012B0CBF88464FF00008FFF75BFC04EB8A
:10AE8000C00420460DF10701FFF740FCA0B10123EB
:10AE900003700E4B4560D3F8043583609DF807308E
:10AEA000C660C0F8108047616370094B4FF4801290
:10AEB000C3F80021002004E0042002E0072000E0A5
:10AEC000082002B0BDE8F081B42C00200010014041
:10AED00000E100E073B5124B1D680646EDB1E0B12C
:10AEE0004369D3B100240474FFF724FC05EBC005CB
:10AEF00028460DF10701FFF709FC60B1022303703A
:10AF00009DF8073046606B70064B4FF48012C3F813
:10AF10000021204602E0042000E0082002B070BDBD
:10AF2000B42C002000E100E0082910B5044602D04E
:10AF30000020FFF711FB23686068BDE81040184748
:10AF400007B5054A8DE8030068460821FFF748FB6E
:10AF500003B05DF804FB00BF29AF070070B5EFF345
:10AF6000108572B60D4A9468012394B993600C4B16
:10AF70000C49D3F88060314011600A49C3F8801051
:10AF8000D3F8841051604FF0FF32C3F8842004706E
:10AF900000E0037005B962B670BD00BFA8340020A0
:10AFA00000E100E0FC06FFBC10B5084B9A685AB1FE
:10AFB00050B9EFF3108272B605491C680C605C68EA
:10AFC0004C60986002B962B610BD00BFA834002082
:10AFD00000E100E048DF704711DF704713DF704782
:10AFE000064B1878012803D1012904BF02211970EA
:10AFF00012B11046FFF7B0BA704700BFE42C002032
:10B0000008B5FFF7E7FF08B1FFF7A6FAFFF74EFB19
:10B01000024B1B78023B022BF3D808BDE42C002026
:10B0200008B509481C2101F008FC08B1FFF794FAA3
:10B03000054806491C22002301F0ECFB18B1BDE8CD
:10B040000840FFF789BA08BDE82C0020C82C002072
:10B0500007B50368013301D1002014E001A800F016
:10B0600043F9019B1A78012AF6D1588830B143F28E
:10B07000080299681068002200F05AF9019B5B8869
:10B080001B1A5842584103B05DF804FB84B02DE907
:10B09000F34108AC84E80F009DF82040BDF8228001
:10B0A000099F0A9E0B9D01A800F01EF944B9374B79
:10B0B0000122FF21A3F802809D601A70197142E0FD
:10B0C000012C13D1314BF2192A449A60A5221A702F
:10B0D000FF221A710C9AA3F80280DF601E615D6185
:10B0E0009A612B4B1C70FFF79BFF49E0032C0DD19D
:10B0F000019A264B11781970518892689A60AA2299
:10B1000059801A71DF601E615D611BE0022C1DD148
:10B11000019A1E4B1178A52903BF00225A809A601C
:10B1200019700DBFFF22518892681A7018BF9A607B
:10B130004FF0FF021A714FF0000218BF5980DA6019
:10B140001A615A610122124B1A70CCE7052C06D104
:10B1500001F00AF808B1FFF7FFF903220EE0042C12
:10B1600009D10A4B00229A605A80FF221A70019A74
:10B1700012791A71B7E7062C02D10422044B1A7017
:10B1800002B0BDE8F04104B0704700BFC82C0020F9
:10B19000E42C00201FB5002101A80C22FFF7D2F9F2
:10B1A000074B019301F0FEFA30B906494FF4FE2334
:10B1B00001A84B6001F01AFB05B05DF804FB00BF6D
:10B1C000E1AF0700E82C002010B500F01FFA28B905
:10B1D00000F004FF0446FFF713FF204610BD0000F7
:10B1E00010B5FFF7F9FE08B1FFF7B6F90D4B196876
:10B1F000002301229A400A4218BF0A4803F10103C2
:10B2000018BFC0F88020202BF3D143F20804206837
:10B21000FFF7E4FE08B1FFF79FF92068BDE8104092
:10B2200000F068B800E100E007B501A800F05CF8A4
:10B23000019B1A78A52A05D01879A0F1AA035842D3
:10B24000584100E0012003B05DF804FB10B500F0A8
:10B250000AFC40B1642001F08FF900F077FB38B1AF
:10B26000FFF77AF904E000F0D8FB0028F2D110BD16
:10B2700000F0F9FB08B1FFF76FF900F0ABFB0446F3
:10B2800008B1FFF769F9204610BD10B588B003ACCE
:10B29000204600211422FFF755F902238DF80C30C7
:10B2A0000023009394E80F00FFF7F0FEFFF7A8FEDD
:10B2B000002008B010BD13B5044601A800F014F832
:10B2C000019B1A7822705A8862809A68A2601A7963
:10B2D0002271DA68E2601A6922615A6962619B69C7
:10B2E000A36102B010BD0000014B0360704700BFB6
:10B2F00000F00700F0B50346186880F30888586826
:10B30000FF2464B2EFF30585002D01D1A646004766
:10B310002546064621273FBAF0B400240025002622
:10B320000027F0B4F92040B2004700BFF0BD00BFD5
:10B330000AB1138801E04FF6FF73014488420ED032
:10B3400010F8012B5BBA9BB25340C3F30312534076
:10B3500083EA03339BB2DAB283EA4213EEE718467C
:10B36000704718DF704770470129F8B50D4614463D
:10B370001F4602D003290CD01AE0114B1B78052B75
:10B3800016D1104B1B689BB1114604203A469847D2
:10B390000EE00B4E3378022B0AD10B4B5B689847BB
:10B3A000084B35701E681EB1284621463A46B04704
:10B3B00024B12046BDE8F840FFF7CEB8F8BD00BF85
:10B3C000F82C0020F02C0020402D002000B5084B68
:10B3D00089B001221A7005238DF80C30079B009369
:10B3E00003AB0FCBFFF752FE09B05DF804FB00BFC3
:10B3F000042D002000B589B003238DF80C300A4BD2
:10B400001B88ADF80E30094B5A6804929A68DB68C5
:10B410000693079B0093059203AB0FCBFFF736FE15
:10B42000002009B05DF804FBF62C0020302D002030
:10B4300000B589B001238DF80C300B4B1B88ADF89B
:10B440000E3043F208031A68084B59680491996852
:10B45000DB6806930591009203AB0FCBFFF716FE56
:10B46000002009B05DF804FBF62C0020302D0020F0
:10B4700010B588B003AC204600211422FFF762F813
:10B4800004238DF80C300023009394E80F00FFF79D
:10B49000FDFD08B010BD000008B50C4B0C4818604D
:10B4A0000C4B02221A7043F208031968494221F436
:10B4B000FF5121F01F0101F5F421490801F0BDF908
:10B4C00018B1BDE80840FFF747B808BDCC2D0020F3
:10B4D000082D0020F82C002008B5084B08481860FB
:10B4E000084B02221A70084B196801F0A6F918B12E
:10B4F000BDE80840FFF730B808BD00BFCC2D0020E4
:10B50000FC2C0020F82C0020D42D002030B5154C48
:10B510001548E16889B001F090F908B1FFF71CF80F
:10B52000124B11485968E268002301F073F905468F
:10B53000A0B903AC294614222046FFF703F80C4BB0
:10B540008DF80C501B88ADF80E30064BDB68069367
:10B55000079B009394E80F00FFF798FD284609B079
:10B5600030BD00BF302D0020FC2C0020082D002015
:10B57000F62C002010B50C4B1B7883B90B48FFF755
:10B58000A9FC08B1FEF7E8FF08484FF4701100224B
:10B59000FFF760FC044620B1FEF7DEFF01E0082063
:10B5A00010BD204610BD00BF042D0020102D00202E
:10B5B000F0B585B005461F469608032368460C463D
:10B5C0008DE8280002910396FFF7CBFEE0B1B4F5B9
:10B5D000805F11D8012368468DE828000294039605
:10B5E000FFF7BFFE80B9032368468DE82800029468
:10B5F0000396FFF7B6FE07E0E81BE11B3A463B4621
:10B60000FFF7D6FF0028E5D005B0F0BD7FB50021DB
:10B610000C2201A8FEF796FF1E4B01931E4B1F4DF7
:10B620001F4C00261E701F4B01A829461E8001F0EA
:10B63000DDF8034608B1267029E043F208021A4EED
:10B640001168696095E8030086E8030011681748EF
:10B650004A4222F4FF5222F01F0202F5F42201EBCB
:10B66000520272601946124AFFF7E2FB08B1FEF778
:10B6700073FF10484FF470110022FFF7EBFB08B185
:10B68000FEF76AFF0C4B002018600123237004B002
:10B6900070BD00BF69B30700F42C0020FC2C002013
:10B6A000F82C0020F62C0020082D002080DD07005B
:10B6B000CDB30700102D0020D02D0020014B1860C5
:10B6C000704700BFF02C002038B54368294C0FCBE1
:10B6D00084E80F0021784B0701D58D0742D16268BD
:10B6E000244B90073ED1986885073BD1DB689C07C7
:10B6F00038D10244204D1A44B0F5A04F2A6033D807
:10B7000043F2080311F0010F1B680AD0C3F5F423BC
:10B710009A4229D8194B1A4A1A601A4A5A601A4A88
:10B7200012E05B4223F4FF5323F01F0303F5F423DD
:10B73000B2EB530F18D8114B144A1A60144A5A60CE
:10B740008A074CBF134A144A9A60144B1B78012B8A
:10B750000CD1FFF70FFF044650B9084B28681B684F
:10B76000984705E0062038BD0C2038BD082038BDBC
:10B77000204638BD302D0020D42D0020402D002043
:10B78000D9B4070071B4070031B4070099B40700B9
:10B7900067B30700F5B307000DB50700F82C0020CC
:10B7A000F8B5064640B383689B0727D1154B1B7835
:10B7B000052B25D1144C4268144F236895003A6834
:10B7C0002B44934204D94FF0FF3323600C20F8BD83
:10B7D000FFF7D0FEA8B90E4BB168186823682A4657
:10B7E00001F018F868B920682A1838682260824287
:10B7F00014BF09200020F8BD0E20F8BD1020F8BDB0
:10B800000820F8BDF82C0020D02D0020D42D0020D9
:10B81000CC2D002070B50B4B1C687CB90A4E3378D8
:10B82000042B0BD1094D0A48297800F049F910B9C9
:10B830000523337003E02C70044600E00824204602
:10B8400070BD00BFD02D0020F82C0020F42C00206B
:10B850004C2D0020F8B5144B1A78032A074602D065
:10B86000042A02D018E004221A70104B1C689CB9FC
:10B87000FFF780FE90B90E4E7D683378AD005A19FF
:10B88000802A0DD80B48B96818442A4602F054FAA9
:10B8900033781D44357004E0082402E0044600E0DB
:10B8A00009242046F8BD00BFF82C0020D02D002030
:10B8B000F42C00204C2D002038B50D4C2378052B9E
:10B8C00014D10C4B0C4D1A682B689A420ED10623EA
:10B8D0002370FFF74FFE50B9084B29681B68586862
:10B8E00000F034F918B90723237038BD082038BD9B
:10B8F000F82C0020D02D0020D42D0020CC2D0020AD
:10B9000010B5084B1B78072B0AD10748FFF7E2FA5E
:10B9100008B1FEF721FE054BBDE810409B681847B3
:10B92000082010BDF82C0020102D0020402D0020F4
:10B9300000B589B006238DF80C30079B009303AB4C
:10B940000FCBFFF7A3FB09B05DF804FBF0B58DB09A
:10B9500005A8FFF7B0FC089C002C38D00B9E04F51E
:10B960008053B34227D943F20803A6F580551B68DC
:10B97000A3424FEA550508D36A00901902F5805199
:10B980002B46A21AFFF714FE20E005F5805301278D
:10B9900001A80197029303930497FFF7E2FCA8B96B
:10B9A0004FF4805301A80197029303930497FFF784
:10B9B000D8FC58B9E0E701230193A4084FF4805361
:10B9C00001A8029603930494FFF7CBFC044620469B
:10B9D0000DB0F0BD00B58DB005A8FFF76CFC09985F
:10B9E000C0B1089A62B943F208031A68534223F4BB
:10B9F000FF5323F01F0303F5F42302EB530301E08D
:10BA00000B9B134480080022039001A8019202932B
:10BA1000FFF7A7FC0DB05DF804FB00B58DB005A8DD
:10BA2000FFF749FC0998D8B1089A62B943F20803B4
:10BA30001A68534223F4FF5323F01F0303F5F42342
:10BA400002EB530301E00B9B134403228008019295
:10BA500004904FF4F42201A802920393FFF781FCB3
:10BA60000DB05DF804FB10B58CB005A8FFF723FC02
:10BA7000089A12B30B9802F5805383420FD943F210
:10BA800008031B68934217D3A0F580535B085C0042
:10BA9000204404F58051121BFFF78AFD0AE00323BE
:10BAA000019303904FF48053920801A802930492EB
:10BAB000FFF757FC024600E00E2210460CB010BD06
:10BAC0000B2910B5044601D8092010BD038900EBED
:10BAD00043030A33C21A0A44D2B21948012A027037
:10BAE000F2D921448B42EFD81946164802F024F9C6
:10BAF000154B1A884FF6FF718A4202D02188914275
:10BB000019D15B884FF6FF72934202D062889A4245
:10BB100011D134F8081F00238B420CD234F8022FC5
:10BB20004FF6FE70824208D043F20C0001330088C9
:10BB30008242F1D101E00B2010BD002010BD00BFFA
:10BB4000E22D0020D82D00208010001008B5002222
:10BB5000FFF7EEFB044A5178137843EA0123984239
:10BB600014BF0B20002008BDD82D00208378427818
:10BB70001B0443EA02230278C078134343EA0060BF
:10BB8000704770DF704771DF704773DF704774DF95
:10BB9000704776DF70477ADF70477CDF70477FDF62
:10BBA000704786DF7047A7DF7047A8DF7047A9DFBF
:10BBB0007047AADF704767DF70470C2813D8DFE8AB
:10BBC00000F014121212121209120712120D0B00B9
:10BBD00002207047032070470420704704290CBFDF
:10BBE0000520062070470620704701207047FEF7A9
:10BBF000B3BCFEF7B1BC10B5044608460321FFF7FD
:10BC0000DCFF03210246204601F024FD18B1BDE807
:10BC10001040FEF7A1BC10BD10B5124B90B09B793F
:10BC20008DF80630044641F23053002102A8382234
:10BC3000ADF80430FEF786FC02238DF808300123AE
:10BC40000021ADF8103002A801AB8DF80A108DF874
:10BC50000B40059301F0F5F908B1FEF77DFC10B03B
:10BC600010BD00BFF82D0020032810B514461AD0CF
:10BC7000042826D149B1134B18884FF6FF73984218
:10BC80001FD01321FFF785FF16E0104600F00AFCD5
:10BC900008B1FEF761FC0C4B1B68A34211D10B48A5
:10BCA0000321012206E008460121FFF786FF024634
:10BCB0000648012101F0CEFC18B1BDE81040FEF7A6
:10BCC0004BBC10BD602C0020E82D0020F82D00207A
:10BCD0002DE9F0472D4B1E788AB09A46002E52D19E
:10BCE0002B4C314620461822FEF72CFC294B1D78A0
:10BCF0008DB3DFF8A4803146102202A808F10709AD
:10BD0000FEF720FC484602A9102202F005F80127A0
:10BD1000054640B90520FFF77FFF2770C4F804806F
:10BD2000257225821FE001AB04200693CDF8009018
:10BD3000CDF804808DF81C708DF82470CDF820D0DB
:10BD4000FFF76AFF0223237206ABE3602823267005
:10BD50002382668208E00620FFF75EFF2823257015
:10BD600065602572238265820948FFF70EFF08B1DE
:10BD7000FEF7F2FB4FF0A0434FF40032C3F80C255E
:10BD800001238AF800300AB0BDE8F087E42D0020D6
:10BD9000742E0020E32D00202E2E0020F0B5044646
:10BDA000B1B001F035FA8348214601F087FC2388C1
:10BDB000142B00F0BC801ED8102B2CD008D8022BDE
:10BDC00040F0F5807C4B00211888FFF7F4FEE8E096
:10BDD000112B31D0132B40F0EA80784B03AC9A79C9
:10BDE000186899888DF822200790DA1DADF8201088
:10BDF000173326463FE0512B00F0838005D81A2BDD
:10BE000000F0A4801B2B60D0D1E0522B00F09E806C
:10BE1000552B51D0CBE04FF0A0434FF48022C3F814
:10BE20000C254FF40032C3F80825634BA2881A8012
:10BE3000634B00221A70BAE08023ADF82430614BC6
:10BE40005D4C32221A604FF0A0434FF48022C3F8B9
:10BE50000825208810A909AA0123FFF7AAFE08B126
:10BE6000FEF77AFB584B1B780BB9FFF731FF4FF603
:10BE7000FF7323809BE010685168254603C5083294
:10BE80009A422C46F7D1514B09AA03F118071546DF
:10BE900018685968144603C40833BB422246F7D1D8
:10BEA0001868454B20601888494A1596852110ABC3
:10BEB0001495FFF774FE74E0A379002B77D13E4B05
:10BEC00013211888FFF765FE6BE0237A002B6ED1F3
:10BED0003B4A13703B4B19680139196071B910ACBA
:10BEE00020461422FEF72EFB05238DF84030149BCC
:10BEF000009394E80F00FFF7C9F858E0FFF7E8FE59
:10BF000055E0A379002B52D0A27B043A022A4ED8E6
:10BF1000022B18BF01238DF840304FF4C173ADF8E8
:10BF20004430254B10A91888FFF73FFE39E0234A1B
:10BF3000258A518DA08802F118038D420CBF194645
:10BF4000002107320023FFF72CFE2AE01A4B1C8841
:10BF50004FF6FF75AC4228D01E4B19782046E1B150
:10BF60001D4908220123FFF722FE0146D0B92046D1
:10BF70000A460223FFF71BFEA0B920460C212A46E1
:10BF8000FFF711FE43F20203984210D008280ED0AA
:10BF900043F20403984204D109E00A460B46FFF736
:10BFA00006FE20B1FEF7D8FA01E00820FAE731B02A
:10BFB000F0BD00BFF82D0020602C00202E2E0020A8
:10BFC000E42D0020642C00208C2E0020462E002022
:10BFD000282E0020E32D0020622E0020564A5748CC
:10BFE000002310B51370564A13704FF0A04303227C
:10BFF000C3F84427C3F848274FF40032C3F8082594
:10C000004FF4802288B0C3F8082501F009FE00280B
:10C0100040F090804B48FFF751FB00F007FA0028F2
:10C0200040F08880484800F04FFC18B9474B012287
:10C030001A7011E001A8FFF7A6FD08B1FEF78CFA0F
:10C040009DF805300020013301A98DF80530FFF778
:10C0500098FD08B1FEF780FA9DF800303C480122B7
:10C0600062F3030308AC62F3071304F8203D01F008
:10C070006EFE374982B22046FFF78FFD08B1FEF70A
:10C080006BFA01A800210822FEF75CFA0C23ADF838
:10C0900004301823ADF806300023ADF8083001A8AD
:10C0A0004FF4C873ADF80A30FFF775FD08B1FEF71D
:10C0B00053FA002101A80C22FEF744FA0823ADF838
:10C0C0000430244B02932448244B039301A901F02C
:10C0D000FFF808B1FEF740FA1C2201A80021FEF784
:10C0E00031FA40F6CD42002302924FF48042019390
:10C0F0000392ADF8123003228DF81430069301A894
:10C10000174B8DF81020079301F046F808B1FEF7A1
:10C1100023FA144A1378032103F0F00361F30613A2
:10C120006FF3C71313700723537010239370FFF737
:10C13000CFFD002008B010BD8C2E00209DBD070053
:10C14000F42D002069BC07002E2E0020E32D0020D6
:10C1500084DD0700C9C10700F82D0020EFBB0700F0
:10C16000F3BB0700282E002010B5144B01221A70D3
:10C17000134B18884FF6FF73984206D01321FFF730
:10C1800008FD98B1FEF7E8F910E00E4B1A781C464E
:10C1900062B1FFF7FCFC08B1FEF7DEF94FF0A043F7
:10C1A0004FF40032C3F808250023237001F02AF869
:10C1B00008B1FEF7D1F9002010BD00BF8C2E002081
:10C1C000602C0020E42D0020F0B50B7889B00546E6
:10C1D0000C46092B00F21781DFE813F027002E0030
:10C1E00041000A00130020000001080145000E0173
:10C1F000FFF762FB0421FFF7E0FC0421024628461A
:10C200002AE0FFF7B1FF08B1FEF7A6F9FFF778FBC8
:10C21000002800F0F880FFF78BFBF4E0FFF7A4FFA5
:10C220000028F8D0FEF798F9F5E7784B01221A704C
:10C230004B681A78764B14E0744B02261E704B68DC
:10C240001B78012B40F0DF80FFF7E4FA3146FFF75F
:10C25000B4FC02462846314601F0FCF9D0E06B4BB5
:10C2600003221A70CFE0694B1E78022E2ED0032EC7
:10C2700056D0012E40F0C78004AF0021102238466E
:10C28000FEF760F9624B0C221B788DF8103001A884
:10C290000021FEF757F9237A029703220C2B019213
:10C2A000D8D164682046FFF761FC0590201DFFF798
:10C2B0005DFC069004F10800FFF758FC079001A808
:10C2C000FFF702FA002800F09E80BFE70B7A13F018
:10C2D000030212D0C2F1040600215818C0B26768E8
:10C2E00001314FF0000EB14207F800E0F5D1013303
:10C2F000C2F1030252FA83F32372012304936368A9
:10C300000693237A04A89B080593FFF7A3FA002855
:10C3100079D00221FFF751FC0221024628469BE713
:10C32000087A830703D028463146324694E7394ECF
:10C330000190314600F08EF8014678B96168019AA3
:10C34000306801F0F9FC019800F0E8F8014628B9DE
:10C3500001A9304600F0F0F8014608B128463AE05D
:10C3600004230493019B9B08059304A83368069358
:10C37000FFF716FA074640B9274A217A13680B449B
:10C380001360264B32681A603DE0092819D1224A11
:10C39000217A13681944224B11601B78002B32D08C
:10C3A000204A1388013B9BB2138014465BBB28468E
:10C3B00001F014F908B1FEF7CFF81B4B1B8823805E
:10C3C00021E0306800F06EF8014610B12846FFF712
:10C3D00012FC28463946FFF70EFC14E0104B0122F0
:10C3E0001A70114A8B8813800E4A03E00C4A00230E
:10C3F00013700D4A138006E0074B196801F0B2F87C
:10C4000008B1FEF7A9F809B0F0BD00BFF42D002077
:10C410002D2E0020F02D0020702E0020E82D002071
:10C420006C2E0020EC2D00206A2E0020064B074ABF
:10C4300000201870064B1A6008225A609860D86075
:10C440001861586198617047CC2F0020902E002011
:10C45000B02F002030B5E9B1114B5C6800220A60B2
:10C46000D4B120281AD8D8681D680130013CD860A2
:10C4700018695C60242404FB00540C60012101FA5B
:10C4800000F499690130214300F0070018619961B7
:10C49000104630BD0E2030BD042030BD0C2030BD14
:10C4A000B02F0020F0B51C4B9A6892B35D691E68EE
:10C4B000AA1A02F007021146242404FB0164A042D8
:10C4C0000ED10D46012101FA05F0996941409961AB
:10C4D00000209F68D3F818E0D3F804C039460BE079
:10C4E000013101F00701A942E6D11020F1E769B15D
:10C4F0006A1C013902F00702012606FA02F20CEB6F
:10C50000070412EA0E0FA4EB0104F0D099605C60FE
:10C51000F0BD0420F0BD00BFB02F002005490B691D
:10C52000013B03F007020B68242101FB0233186270
:10C5300000207047B02F002030B5B0B1A9B10D4B2D
:10C54000DA68A2B1013ADA609A681D6801329A602D
:10C550005A69242404FB02540132046002F00702E9
:10C56000206A5A610860002030BD0E2030BD0420D2
:10C5700030BD00BFB02F002082B00190019B002B86
:10C5800041D0019B013B019340F2E730013800BFED
:10C5900000BF00BF00BF00BF00BF00BF00BF00BFA3
:10C5A00000BF00BF00BF00BF00BF00BF00BF00BF93
:10C5B00000BF00BF00BF00BF00BF00BF00BF00BF83
:10C5C00000BF00BF00BF00BF00BF00BF00BF00BF73
:10C5D00000BF00BF00BF00BF00BF00BF00BF00BF63
:10C5E00000BF00BF00BF00BF00BF00BF00BF00BF53
:10C5F00000BF00BF00BF00BF00BF00BF00BF00BF43
:10C6000000BFC3D1BAE702B0704729DF704728DF07
:10C610007047000037B50B46024608465C6850F884
:10C620000C5F09780094034C5B6954F82540A047DF
:10C6300003B030BDC430002038B5184C2378182220
:10C6400002FB034202F108001379C568012B0DD0EB
:10C65000032B21D14FF080531869114B80B2B5FBE9
:10C66000F0F518682844FFF7D2FF11E00C4B9169F0
:10C670001B68926840681B03D21AB2F5805F284499
:10C680001944184434BF92084FF48062FFF7BDFF8D
:10C6900018B90123A37038BD0F2038BDD02F00205A
:10C6A000D430002070B5144D6E780A2E21D02C782D
:10C6B0003444E4B2092C88BF0A3C4FF0180688BF06
:10C6C000E4B206FB045404F110062071A26103C910
:10C6D000A360049BE360AB7886E803000BB1002005
:10C6E00003E0FFF7A9FF1128F9D06B7801336B70D5
:10C6F00070BD042070BD00BFD02F002038B5274B7F
:10C700009A781D46002A48D0002402289C7002D046
:10C71000032833D038BD1B782149182000FB035073
:10C720000A6880680132B0EB023F0A601BD86A7861
:10C730000C60013A6A705A1CD2B2182404FB0354EC
:10C74000092A88BFA3F10902211D00202A70FFF7E2
:10C7500061FF2346002243F8082F032122719960CC
:10C76000DA60A2615A606B780C4CB3B1A378A3B9BC
:10C77000FFF762FF88B1112806D138BD1A78182159
:10C7800001FB02310D2003E02378182101FB034156
:10C790000431BDE83840FFF73DBF38BDD02F002041
:10C7A000D43000200D4B00221A600D4B1A705A70C5
:10C7B0009A7003F1F002002003211871986019614A
:10C7C00058619861D86018339342F4D1054B1860D2
:10C7D000054B186058609860704700BFD430002047
:10C7E000D02F0020D0300020C4300020074A13682A
:10C7F000032B1FBF0B60591C1160054A1DBF016848
:10C8000042F8231000200420704700BFD0300020E1
:10C81000C430002073B51546CA180A43920706466D
:10C820000C4607D10093314622462B460120FFF7E4
:10C8300039FF00E0102002B070BD13B5002204469D
:10C840000B46009221460320FFF72CFF02B010BDDB
:10C8500070B50D4600BB0968E1B1114CA14211D081
:10C86000631A3B2B0AD801F13C03481E834209D0CE
:10C8700013F801695A1A22445670F7E720463C2201
:10C8800001F05AFA06483C210022FEF751FD002330
:10C89000A08702E00E2300E001232B6070BD00BFE3
:10C8A000807F0020074A6FF002039E4502D1EFF31C
:10C8B000098101E0EFF308818869A0F102000078A6
:10C8C000104700BF51C8070038B50546A8B10D4C48
:10C8D0003C2120460022FEF72BFDA38F83420ED180
:10C8E000234604F13C0253F8041B45F8041B934211
:10C8F000F9D10130A087002038BD0E2038BD0B20B3
:10C9000038BD00BF807F002013DF704718DF7047FD
:10C9100010B58AB00446002101A81022FDF712FECE
:10C92000022301931A4B186800902CB101A8FFF75D
:10C93000EDFF08B1FDF710FE4FF4F420FFF7E4FF20
:10C9400008B1FDF709FE68461249134B482201F071
:10C9500029F908B1FDF700FE0120014605AA01F002
:10C9600085F908B1FDF7F8FD9DF8203005A843F0E2
:10C9700001038DF8203001F091F908B1FDF7ECFDCD
:10C98000064801F057F908B1FDF7E6FD0AB010BD01
:10C990008CDD0700F0330020CDDC0700A1C90700C3
:10C9A000FFF7ACBE08B508201421044AFDF7F4FDDA
:10C9B00018B1BDE80840FDF7CFBD08BDA03200208A
:10C9C00070B54FF08043D3F81C45A4F1B102544236
:10C9D000544114B10022C3F81C254FF0A043032298
:10C9E000C3F84427C3F84827C3F84C27C3F8502797
:10C9F0004FF4F012C3F808253C4B1B68B3F5F42F35
:10CA000002D00020FDF7A8FD4FF080531B69B3F55D
:10CA1000805F02D00020FDF79FFD00200521344AF1
:10CA2000344BFEF7AFF908B1FDF796FD4FF0A04685
:10CA3000314BC6F81C37FEF7ADFBFEF7F5FB84F073
:10CA40000105C8B14FF48073C6F80C35FEF7FEFB44
:10CA500008B1FDF781FD2846FFF75AFFFFF7A2FF57
:10CA6000FEF713FC08B1FDF777FD4FF0A0434FF43C
:10CA70008072C3F8082504E02846FFF749FFFFF756
:10CA800091FF4FF0A043D3F810351B0600D55CB1E1
:10CA90004FF0A0444FF48075C4F80C55FEF794FB9A
:10CAA00048B1FDF759FD06E043F208031868FEF7A8
:10CAB000CFFA10B9ECE7C4F8085543F2080420682F
:10CAC000FEF7C6FA28B1FEF7AFFB10B92068FEF7F3
:10CAD00087FBBFF34F8F0949094BCA6802F4E06234
:10CAE0001343CB60BFF34F8F00BFFDE7141000105E
:10CAF000D830002041AF07000C00030000ED00E03B
:10CB00000400FA0571DF704772DF704779DF704704
:10CB10007DDF704765DF70472DE9F04F85B0002459
:10CB20000E9DBDF83CA02E880191834690461F467D
:10CB3000A146BBF80020914535DADBF8042052F815
:10CB4000290003900DF10B0103A80022FFF7E2FF7B
:10CB5000002835D19DF80B20424521D12A88002C90
:10CB600014BF0021022102EB08000144514526DCDC
:10CB700044B9013292B29DF804302A80BB542A880D
:10CB800001322A802A8803A80DF10B013A44FFF7ED
:10CB9000C1FFA8B92A889DF80B100A442A800124F5
:10CBA00009F10109C5E744B12A88013A921B92B202
:10CBB000FF2A04D8BA55002002E0204600E00C20ED
:10CBC00005B0BDE8F08F2DE9F341089DBDF8244084
:10CBD000009517460194022280461E46FFF79CFFEF
:10CBE00050B940463946102233460895099402B0A0
:10CBF000BDE8F041FFF790BF02B0BDE8F0812DE93C
:10CC0000F043002316881380436B85B007460D461A
:10CC100014469BB1022E1A7840F20D8202230B704B
:10CC2000238801339BB211212380E95423880133E7
:10CC30009BB22380EA542388013323803A6B22B9C4
:10CC400097F82E20002A41D01CE0238803F112011E
:10CC5000B14200F2F0811121E954238801339BB2E3
:10CC600010212380E954238801332380531821881D
:10CC700013F8010D68542188934201F101012180CC
:10CC8000F5D1DDE72388D91CB14200F2D48102211D
:10CC9000E954238801339BB21C202380E854238865
:10CCA00001339BB2013A2380032A00F2C681DFE8F8
:10CCB00002F002040608002204E0012202E0E95426
:10CCC00001E00322EA5423880133238097F82D30B2
:10CCD0001BB9BB78002B4CD02AE023880933B34220
:10CCE00000F2A98102A8FFF70DFF002840F0A681FD
:10CCF00023880822EA54238801339BB21B22238015
:10CD0000EA542088013080B22080062228440DF1A8
:10CD1000090101F011F823889DF8082006339BB221
:10CD2000238002B10122EA54238801332380D0E713
:10CD300023880433B34200F27E8102A8FFF7E6FEA7
:10CD4000002840F07B8123880322EA5423880133A2
:10CD50009BB219222380EA542388BDF808200133AE
:10CD60009BB2E9182380EA54120A4A7023880233DE
:10CD70002380FA78A2B12388D91CB14200F25B81EA
:10CD80000221E954238801339BB201212380E95415
:10CD900023880B449BB22380EA5423880B442380CE
:10CDA0007B68ABB11A782388D91CB14200F2438169
:10CDB0000221E954238801339BB20A212380E954DC
:10CDC000238801339BB22380EA54238801332380D4
:10CDD0003B8913B93B8AC3B10BE08DE8500007F1E2
:10CDE0000800022106222B46FFF7EDFE0028F1D0B5
:10CDF00024E18DE8500007F11000032107222B46A3
:10CE0000FFF7E1FE002840F019813B8B5BB18DE814
:10CE1000500007F11800142115222B46FFF7D3FE0E
:10CE2000002840F00B813A6A002A46D0B4F800E0AE
:10CE30000EF10603B34200F2FE801188052940F28C
:10CE4000FC806FF4486C01EB0C039BB24FF27D3C0D
:10CE5000634540F2F2805388052B40F2EE806FF478
:10CE60004860181880B2604540F2E7804FF6FF70C6
:10CE7000814204D0834202D0994200F2DE80052331
:10CE800005F80E30238801339BB212212380E95428
:10CE9000238801339BB223801188E954E818090ADA
:10CEA0004170238802339BB223805288EA54E918E8
:10CEB000120A4A70238802332380D7F82480B8F1FD
:10CEC000000F31D0B8F8043021881A1D0A44B2424C
:10CED00000F2B1809A1CFE2A00F2AD8003336B543D
:10CEE000238801339BB2FF222380EA542388013335
:10CEF0009BB22380B8F80020EA54E918120A4A705D
:10CF00002088023080B22080B8F8042062B1D8F8BE
:10CF10000810002900F09180284400F00DFF2288BD
:10CF2000B8F804301344238097F82C3023B93878AC
:10CF3000002800F083803FE0BB6A002B7DD04FF0DB
:10CF4000000997F82C205FFA89F39A42EFD90C2058
:10CF5000B96A00FB03F201EB0208B8F8043003F1F0
:10CF6000020EBEF1FE0F69D8208803332B542388AC
:10CF700001339BB216202380E854238801339BB2EF
:10CF800023808A5AEA54E918120A4A70208802302B
:10CF900080B22080B8F804205AB1D8F808100029CF
:10CFA0004BD0284400F0C8FE2288B8F8043013445F
:10CFB000238009F10109C4E73B88012B3DD0228879
:10CFC00002F1020EB64536D8012804D17B7802332F
:10CFD0001344B3422FD8023EB61A04A9B6B221F8C0
:10CFE000086D05EB0E00FFF793FD38BB3B78022B75
:10CFF00004D1BDF80830B3420CD907E0012B05D1AC
:10D000007B78B34202D8ADF8083001E0ADF8086093
:10D01000082100E00921BDF80820FE2A0BD823884A
:10D020000132EA54238801339BB22380E9542388D8
:10D030001A44228002E00C2000E0072005B0BDE881
:10D04000F08330B593B01F230D46ADF80430ADF832
:10D05000063020B1C3785B0714D4072022E0ADF876
:10D06000040004461DB1EB78002BF6D111E0ADF8B9
:10D0700006502A4620469DF804109DF80630FFF71A
:10D0800043FD0FE002A901AAFFF7B9FD50B902ACB8
:10D09000E8E728460AA90DF10602FFF7B0FD08B936
:10D0A0000AAAE7E713B030BD75DF704776DF704737
:10D0B0007ADF70477BDF704737B5154B18884FF61E
:10D0C000FF73984222D0134A134D1378297B013302
:10D0D000DBB2994213702C4606D31049FFF7E4FFE8
:10D0E000A0B1AB698BB911E0002313702B7C33B175
:10D0F0003B21FFF7DBFF10B1AB6903B198476369D0
:10D1000023B102A8002200F8042D984703B030BDD7
:10D110008034002042340020443400208234002037
:10D1200073B5174B174A5B881188174C174D9942F6
:10D130000DD852889A420AD3636923B102A801220A
:10D1400000F8042D984700232B7002B070BD2A7898
:10D150002AB16369002BF6D002A80022F0E70C4840
:10D1600061680678A3680B48002E18BF1946FDF7C2
:10D1700071FE0028E7D0A369002BE3D1E3E700BFED
:10D180003A34002082340020443400203834002017
:10D19000423400206034002070B5054606460FCDAD
:10D1A000114C0FC495E80700104B84E807000022DB
:10D1B0001A7032680E489AB113680360536843606E
:10D1C000FFF776FF78B90B4B0B484FF6FF721A80CA
:10D1D0000A4B0B4A00211970BDE87040FDF728BECC
:10D1E000FFF768FFEEE770BD4434002038340020BC
:10D1F000823400208034002090DD0700423400207B
:10D20000B9D007000148FDF765BE00BF60340020BB
:10D2100010B50388112B18D002D8102B05D010BDE3
:10D22000122B34D0502B1ED010BD1E4B82881A807A
:10D2300000F1180303CB1C4A1C4B10605160002204
:10D240001A701B4BDB8963BB27E0164B19484FF65E
:10D25000FF721A80154B00221A70FDF73BFE00B3D7
:10D26000134B9B690FE0124CC288E3899A4218D194
:10D27000038A022B15D1837CDB070ED40D48FDF702
:10D2800029FE70B1A36963B1BDE81040184700F1F1
:10D29000080303CB044A10605160BDE81040FFF75B
:10D2A0003FBF10BD803400203A34002042340020BB
:10D2B0004434002060340020A0DF7047A2DF7047B4
:10D2C000A5DF7047A6DF7047A8DF704763DF7047B0
:10D2D0002DE9F0470F4694B00546002800F036814E
:10D2E000002900F033814B68002B00F02F814FF6AE
:10D2F000FF730380994B04AA03F110069646186841
:10D300005968144603C40833B3422246F7D114AE19
:10D3100041F2305370460DF10A0126F8483DFFF7FF
:10D32000D5FF002840F01481012031462A1DFFF767
:10D33000C3FF0446002840F00C819DF80A30AB7111
:10D3400021461C220DA8FDF7FDF89DF834300E94FF
:10D3500043F004038DF8343001AEAB798DF80E3014
:10D36000214641F232530322304610941194129414
:10D370001394ADF80C30FDF7E5F89DF8043064F334
:10D38000030364F307138DF804309DF805304FF064
:10D39000010A6AF303036AF307138DF805309DF859
:10D3A00006306AF3420364F3C30364F30413DBB28D
:10D3B00043EA0A032146142208A88DF806300DF12D
:10D3C0000C08FDF7BFF84FF01409A888ADF8284005
:10D3D0000DA908AA05F10803ADF82A400C94CDF870
:10D3E00020800996ADF82C90FFF768FF04460028CE
:10D3F00040F0AF8021461C220DA8FDF7A3F89DF850
:10D4000034300E9443F018038DF83430AB798DF836
:10D410000E30214641F231530322304610941194CC
:10D4200012941394ADF80C30FDF78CF89DF804308D
:10D4300064F3030364F307138DF804309DF805309B
:10D440006AF303036AF307138DF805309DF806307D
:10D450006AF3420364F3C303DBB243F011032146D2
:10D460004A4608A88DF80630FDF76CF81723ADF88A
:10D470002C30A888ADF828400DA908AA05F11003A2
:10D48000ADF82A400C94CDF820800996FFF716FFDE
:10D49000044600285DD121461C220DA8FDF752F854
:10D4A0009DF834300E9443F002038DF83430AB799C
:10D4B0008DF80E30214641F2345303223046109449
:10D4C000119412941394ADF80C30FDF73BF89DF8CD
:10D4D00004306AF303036AF307138DF804309DF8F0
:10D4E000053064F3030364F307138DF805309DF8EA
:10D4F00006306AF3420364F3C30364F30413DBB23C
:10D5000043EA0A0321464A4608A88DF80630FDF78B
:10D5100019F80223ADF82830ADF82C30A888ADF802
:10D520002A400DA908AA05F12003CDF8208009960C
:10D530000C97FFF7C3FE044658B97B68AB62BB6823
:10D5400003B1EB62064B01221A7002E00E2400E0E8
:10D550000446204614B0BDE8F08700BF94DD070004
:10D560008A34002070B5054686B070B302884FF645
:10D57000FF739A422BD0174B1B7843B3164CC1F361
:10D580000720E1702071C1F30740090E0723102224
:10D5900001266071A17102A800216370ADF8063008
:10D5A0002270A670FCF7CEFF2B8AADF8083000235E
:10D5B000ADF80C3028888DF80A600DF1060302A939
:10D5C00004930594FFF77EFE02E00E2000E00820A1
:10D5D00006B070BD8A3400208B34002030B505467B
:10D5E00087B068B302884FF6FF739A422AD0174B70
:10D5F0001B783BB3164C11232370C1F307236170D2
:10D60000A370C1F30743090EE3702171052302A83B
:10D6100000211022ADF80630FCF794FF2B8AADF8FC
:10D62000083001238DF80A300023ADF80C3028882B
:10D6300005940DF1060302A90493FFF743FE02E0EF
:10D640000E2000E0082007B030BD00BF8A34002063
:10D650008B34002030B5044687B030B300884FF6D5
:10D66000FF73984223D0134B1B7803B3124D102342
:10D6700069700321ADF80610AA7002A81A460021AD
:10D680002B70FCF75FFF238AADF8083001238DF87B
:10D690000A300023ADF80C30208805950DF1060303
:10D6A00002A90493FFF70EFE02E00E2000E008201E
:10D6B00007B030BD8A3400208B34002070B50D4691
:10D6C00088B00446002800F0C280002900F0BF8026
:10D6D000826A002A00F0BB800B88112B1BD004D873
:10D6E000102B40F0B4808B8817E0502B02D0512BC8
:10D6F00015D0ACE0C9880389994240F0A88008237E
:10D700008DF81030123535F8023C8DF8183005953B
:10D7100004A990479BE04FF6FF73238097E08B7935
:10D72000022B40F094800A89038A9A4240F08F804D
:10D730008B7B043B022B40F28A809DF8163043F02D
:10D7400001038DF816300B8AADF818304B8AADF80E
:10D750001A30022601F114030822002101A88DF8D5
:10D7600010600793FCF7EEFE00232088A18AADF835
:10D77000046001AAADF80630CDF808D0FFF7A0FD8F
:10D78000064618B1E36A2BB1984703E09DF80030D4
:10D79000DB0708D440F2FD132088ADF8143004A94B
:10D7A000FFF792FD4FE0ADF8140004A92088FFF7C1
:10D7B0008BFD002847D1297D4B1E072B3FD8DFE882
:10D7C00003F0040E1D1F21233C256B8A8DF8046095
:10D7D000012B02D82046012109E0012309E06A8AD1
:10D7E00001239A428DF8043003D8204602210622F4
:10D7F00027E015358DF80C30029519E0022315E06D
:10D80000032313E0042311E005230FE06B8A022BAE
:10D8100002D82046082113E0AA7D6B7D43EA02234B
:10D82000ADF808300BB9072300E006238DF804306B
:10D83000A36A204601A9984709E00923F6E7204694
:10D840000322FFF707FF10B1E36A03B1984708B05E
:10D8500070BD0000944B1B78062B0AD1934B1B68BC
:10D860001A0706D1924B1B6803F0F003302B00F02F
:10D87000AA808D4B1B78062B0FD18C4B1B681B0786
:10D880000BD18B4B1B6803F0F002302A00F09F8015
:10D8900003F0E003402B00F09A80834B1B78062BAB
:10D8A0000AD1824B1B68180706D1814B1B6803F015
:10D8B000F003302B00F092807B4B1B78062B0FD1AE
:10D8C0007A4B1B6819070BD1794B1B6803F0F002E8
:10D8D000302A00F0898003F0E003402B00F08480C0
:10D8E000714B1B78062B09D1704B1B681A0705D1A9
:10D8F0006F4B1B6803F0F003302B7FD06A4B1B7813
:10D90000062B0AD1694B1B6813F00F0305D1684A37
:10D91000126802F0F002302A74D0634B1B78062B99
:10D9200009D1624B1B681B0705D1614B1B6803F0D3
:10D93000F003502B70D05F4AD2F8883043F4700364
:10D94000C2F88830BFF34F8FBFF36F8F4FF01023B3
:10D95000D3F80022002A03DBD3F80432002B2EDA9E
:10D96000554B0122C3F80425D3F80024002AFBD02C
:10D970004FF010221521C2F80012D3F80024002A1B
:10D98000FBD04FF010231522C3F804224A4BD3F8E2
:10D990000024002AFAD00022C3F80425D3F800247A
:10D9A000002AFBD0BFF34F8F4249444BCA6802F4B0
:10D9B000E0621343CB60BFF34F8F00BFFDE7404BE6
:10D9C000404A1A607047404B404A1A6051E7404B4A
:10D9D000404A1B68C3F3423313605EE73E4AD36894
:10D9E00023F08073D36067E74FF080430022C3F8D1
:10D9F0000C21C3F81021C3F8382571E7374B0322F7
:10DA00001A607BE7364A0521116001219167936016
:10DA1000344B3F221A6080E74FF08052324BD2F8ED
:10DA20000414C3F82015D2F80814C3F82415D2F84A
:10DA30000C14C3F82815D2F81014C3F82C15D2F81A
:10DA40001414C3F83015D2F81814C3F83415D2F8EA
:10DA50001C14C3F84015D2F82014C3F84415D2F8AA
:10DA60002414C3F84815D2F82814C3F84C15D2F87A
:10DA70002C14C3F85015D2F83014C3F85415D2F84A
:10DA80003414C3F86015D2F83814C3F86415D2F80A
:10DA90003C14C3F86815D2F84014C3F86C15D2F8DA
:10DAA0004424C3F8702546E7E00F00F0E40F00F0CF
:10DAB000E80F00F000ED00E000E001400400FA058E
:10DAC000682C00200090D00374C007400DF0ADBA60
:10DAD000440200103C050040F0ED00E0A0050040CD
:10DAE000105600401456004000C0004052DF7047FE
:10DAF00010DF704760DF704761DF704708B5FCF7E3
:10DB000039FD08BD2DE9F341214B1B78002B3BD09B
:10DB1000204B214E1C683568B4FA84F4B5FA85F5BB
:10DB200064096D0998466DBB01A8FFF7DFFF052862
:10DB300007D010B1FCF710FD04E033680198984756
:10DB400000E00125E4B9154B02A91B8821F8043D2A
:10DB5000134B1F683846FFF7CFFF0528044609D04E
:10DB600018B1FCF7F9FC002405E0D8F8003038467D
:10DB7000984700E00124002DD6D0002CD3D003E03C
:10DB800015B9D1E7002CDED002B0BDE8F08100BFAE
:10DB900092340020A03400209C34002094340020D3
:10DBA0009834002010B5C9B18C0717D1154C2160ED
:10DBB00015490A80154A16491360FFF799FFB0B955
:10DBC000144B154901221A7091F816335B099A1EFD
:10DBD000052A0ED8043B012B02D80AE007230EE0E9
:10DBE0000E4A936843B1136843F4800313600346FD
:10DBF00005E042F2020302E04FF480020A60184698
:10DC000010BD00BF9834002094340020A4340020BC
:10DC1000FDDA07009234002000E100E0A834002083
:10DC200018B1034B1860002070470E20704700BFEA
:10DC3000A034002018B1034B1860002070470E205C
:10DC4000704700BF9C34002008B5074B1B682BB100
:10DC5000984738B1BDE80840FCF77EBCBDE80840F5
:10DC6000FFF750BF08BD00BFA434002070B51446B4
:10DC700005460E46104600211422FCF763FC227B69
:10DC800026720021012361F30002238021612273A7
:10DC9000657205B1A372002070BD000007B5054B89
:10DCA000019302A9019B41F8083DFFF723FF03B050
:10DCB0005DF804FB002C002008B511B10020FCF732
:10DCC0004BFCBDE80840FFF71DBF000000200146E7
:10DCD000014AFCF785BC00BFB9DC07000649074ACA
:10DCE000074B9B1A03DD043BC858D050FBDCFFF701
:10DCF000B1FDFCF7B3FB0000B0DD0700002C0020F5
:10DD0000782C0020FEE7FEE7FEE7FEE7FEE7FEE7F1
:10DD1000FEE7FEE7FEE7FEE710B50A44441E914227
:10DD200008D014F8013F0878834201D0181A10BDBA
:10DD30000131F4E7002010BD10B5431E0A449142A2
:10DD400004D011F8014B03F8014FF8E710BD03466A
:10DD500013F8012B002AFBD1181A01387047000074
:10DD6000F8B500BFF8BC08BC9E467047F8B500BFC8
:10DD7000F8BC08BC9E46704743000000002C002001
:10DD8000102D002044667554617267000100000781
:10DD90006034002023D1BCEA5F782315DEEF121235
:08DDA00000000000000000007B
:08DDA800B4C6FF7F010000007A
:10DDB0000000000000000000000000000000000063
:10DDC0000000000000000000000000000000000053
:10DDD00078DD0700000000000000000000000000E7
:10DDE0000000000000000000000000000000000033
:10DDF0000000000000000000000000000000000023
:10DE00000000000000000000000000000000000012
:10DE1000FFFF0000320000000090D00325A407009F
:08DE200001A40700000000004E
:020000020000FC
:020000041000EA
:0410140000A0070031
:0410180000E00700ED
:040000037000DCDDD0
:00000001FF
